:1000000072C000009EC000009CC000009AC00000AA
:1000100098C0000096C0000094C0000092C000008C
:1000200090C000008EC000008CC000008AC000009C
:1000300088C0000086C0000084C0000082C00000AC
:1000400080C000007EC000007CC000007AC00000BC
:1000500078C0000076C0000074C00000E5C1000058
:1000600070C0000054C2000029C200006AC0000035
:1000700068C0000066C0000064C0000062C00000EC
:1000800060C000005EC000005CC000005AC00000FC
:1000900058C0000056C0000054C0000052C000000C
:1000A00050C000004EC000004CC000004AC000001C
:1000B00048C0000046C0000044C0000042C000002C
:1000C00040C000003EC000003CC000003AC000003C
:1000D00038C0000036C0000034C0000032C000004C
:1000E00030C000007E0411241FBECFEFD1E2DEBF7E
:1000F000CDBF00E00CBF12E0A0E0B2E0EAEEFDE010
:1001000000E00BBF02C007900D92AC33B107D9F7E6
:1001100022E0ACE3B2E001C01D92A23EB207E1F7DB
:1001200010E0C3E7D0E000E005C021970109802F6F
:10013000FE014DD6C237D10780E00807B1F71DD2C6
:1001400052C65ECF3FB7F89480914102909142022F
:10015000A0914302B091440226B5A89B05C02F3F51
:1001600019F00196A11DB11D3FBFBA2FA92F982FDD
:100170008827820F911DA11DB11DBC01CD0142E058
:10018000660F771F881F991F4A95D1F70895CF9260
:10019000DF92EF92FF920F931F93CF93DF936C0147
:1001A0007A018B01C0E0D0E0CE15DF0581F0D801E7
:1001B0006D918D01D601ED91FC910190F081E02DC2
:1001C000C6011995892B11F02196EECF7E01C7014A
:1001D000DF91CF911F910F91FF90EF90DF90CF9023
:1001E0000895089580E090E00895FC01538D448DBA
:1001F000252F30E0842F90E0821B930B541710F0D2
:10020000CF96089501970895FC01918D828D9817DE
:1002100061F0828DDF01A80FB11D5D968C91928DEA
:100220009F5F9F73928F90E008958FEF9FEF0895E7
:10023000FC01918D828D981731F0828DE80FF11DB0
:10024000858D90E008958FEF9FEF0895FC01918DCB
:10025000228D892F90E0805C9F4F821B91098F73C4
:100260009927089585E492E0F1DF21E0892B09F4D4
:1002700020E0822F0895FC01848DDF01A80FB11DBD
:10028000A35ABF4F2C91848D90E001968F739927CC
:10029000848FA689B7892C93A089B1898C918370AA
:1002A00080648C93938D848D981306C00288F389A3
:1002B000E02D80818F7D80830895EF92FF920F93D0
:1002C0001F93CF93DF93EC0181E0888F9B8D8C8D02
:1002D000981305C0E889F989808185FD25C0F62E2F
:1002E0000B8D10E00F5F1F4F0F731127E02E8C8DC9
:1002F000E8120BC00FB607FCFACFE889F9898081B4
:1003000085FFF5CFCE01B7DFF2CF8B8DFE01E80F71
:10031000F11DE35AFF4FF0829FB7F8940B8FEA89E3
:10032000FB89808180620AC09FB7F894EE89FF89BB
:100330006083E889F98980818370806480839FBFAE
:1003400081E090E0DF91CF911F910F91FF90EF90AE
:100350000895CF93DF93EC01888D8823C1F0EA895B
:10036000FB89808185FD05C0A889B9898C9186FDAE
:100370000EC00FB607FCF5CF808185FFF2CFA889AC
:10038000B9898C9185FFEDCFCE0175DFE8CFDF9184
:10039000CF91089580E090E0892B19F063DF8111FF
:1003A00025C080E090E0892B41F080E090E0892B2F
:1003B00021F00E94000081111CC080E090E0892B98
:1003C00041F080E090E0892B21F00E940000811133
:1003D00013C080E090E0892BA1F080E090E0892BB1
:1003E00081F00E94000081110AC008950E9400005F
:1003F000D8CF0E940000E1CF0E940000EACF0C9409
:1004000000000895009761F0FC0101900020E9F7D9
:100410003197AF01481B590BBC0185E492E0B7CE80
:1004200080E090E00895DBD41F920F920FB60F92F8
:1004300011242F933F938F939F93AF93BF938091FA
:100440003D0290913E02A0913F02B0914002309156
:100450003C0223E0230F2D3720F40196A11DB11D8E
:1004600005C026E8230F0296A11DB11D20933C0272
:1004700080933D0290933E02A0933F02B0934002CE
:100480008091410290914202A0914302B0914402B6
:100490000196A11DB11D8093410290934202A09349
:1004A0004302B0934402BF91AF919F918F913F91CE
:1004B0002F910F900FBE0F901F9018951F920F92C3
:1004C0000FB60F9211240BB60F922F933F934F93B9
:1004D0005F936F937F938F939F93AF93BF93EF93AC
:1004E000FF9385E492E0C7DEFF91EF91BF91AF915A
:1004F0009F918F917F916F915F914F913F912F913C
:100500000F900BBE0F900FBE0F901F9018951F926B
:100510000F920FB60F9211240BB60F922F938F9359
:100520009F93EF93FF93E0915502F09156028081E3
:10053000E0915B02F0915C0282FD12C0908180919B
:100540005E028F5F8F7320915F02821751F0E091FE
:100550005E02F0E0EB5BFD4F958F80935E0201C081
:100560008081FF91EF919F918F912F910F900BBE02
:100570000F900FBE0F901F901895CF93DF93CDB7BC
:10058000DEB7A1970FB6F894DEBF0FBECDBF78944B
:1005900084B5826084BD84B5816084BD85B5826088
:1005A00085BD85B5816085BD80916E008160809339
:1005B0006E001092810080918100826080938100A2
:1005C00080918100816080938100809180008160B2
:1005D000809380008091B10084608093B10080910D
:1005E000B00081608093B000809191008260809320
:1005F00091008091910081608093910080919000A2
:100600008160809390008091A10082608093A1001E
:100610008091A10081608093A1008091A000816001
:100620008093A000809121018260809321018091BC
:10063000210181608093210180912001816080935C
:10064000200180917A00846080937A0080917A0002
:10065000826080937A0080917A00816080937A0032
:1006600080917A00806880937A001092C100E091B6
:100670005502F091560282E08083E0915102F091A0
:10068000520288E08083E0915302F091540282E2AA
:10069000808310925D02E0915902F0915A0286E047
:1006A0008083E0915702F0915802808180618083BD
:1006B000E0915702F0915802808188608083E09138
:1006C0005702F0915802808180688083E091570240
:1006D000F091580280818F7D808382E192E092DEEA
:1006E0008CE292E08FDE90E4392E80917B00877F50
:1006F00080937B0030927C0080917A0080648093AC
:100700007A0080917A0086FDFCCF6091780080911C
:10071000790070E0782B072E000C880B990B1AD209
:1007200020E030E040EA50E4C9D220E030EC4FE76E
:1007300054E47AD12AE037ED43E25CE375D16B01F2
:100740007C014B015C019B01AC011BD3882319F098
:100750008FE292E018C026013701E89477F82FEF76
:100760003FEF4FE75FE7C301B2010BD381110DC02B
:100770002FEF3FEF4FE75FE7C301B20151D11816EA
:1007800024F483E392E03EDE8FC02FEF3FEF4FE78C
:100790005FE4C701B6018ED218161CF487E392E01D
:1007A000F2CF2FEF3FEF4FE75FECC701B60138D133
:1007B00087FDF4CF20E030E0A901C701B60130D1B8
:1007C00087FF0AC06DE285E492E077DD46015701BC
:1007D000B7FAB094B7F8B0942AE037ED43EA5BE398
:1007E000C501B401B9D06B017C0186D14B015C011C
:1007F000AFD19B01AC01C701B601ADD02B013C01CB
:1008000019A27E0121E2E20EF11C0E2DDF2CC501A2
:10081000B4012AE030E040E050E0B7D249015A018B
:10082000605DF70162937F01232B242B252B79F741
:10083000CF01E8DD6EE285E492E03FDD13E0115088
:1008400099F120E030E040E251E4C301B20136D238
:100850004B015C0151D19B0140E050E019A2E02E18
:10086000FD2C562E632E742EC52ECA01B9012AE026
:1008700030E040E050E089D2605DF70162937F0193
:10088000211531054105510581F7CF01BBDD652DEE
:10089000762D872D9C2D5CD19B01AC01C501B40147
:1008A0005AD02B013C01CBCF8CE292E0ABDD4ADC8D
:1008B0006B017C0188EE882E83E0982EA12CB12C50
:1008C00041DCDC01CB018C199D09AE09BF09883ED2
:1008D0009340A105B105A0F3F1E08F1A9108A1089A
:1008E000B10828EEC20E23E0D21EE11CF11C8114D7
:1008F0009104A104B10421F74DDDF7CEE5E4F2E067
:100900001382128288EE93E0A0E0B0E084839583A6
:10091000A683B78384E092E09183808385EC90E0A6
:100920009587848784EC90E09787868780EC90E0B9
:10093000918B808B81EC90E0938B828B82EC90E0AA
:10094000958B848B86EC90E0978B868B118E128E24
:10095000138E148E08955058BB27AA270ED070C14D
:1009600061D130F066D120F031F49F3F11F41EF4D4
:1009700056C10EF4E095E7FB4CC1E92F72D180F32C
:10098000BA17620773078407950718F071F49EF58C
:100990008AC10EF4E0950B2EBA2FA02D0B01B901E0
:1009A00090010C01CA01A0011124FF27591B99F0E5
:1009B000593F50F4503E68F11A16F040A22F232FF1
:1009C000342F4427585FF3CF469537952795A79541
:1009D000F0405395C9F77EF41F16BA0B620B730BE8
:1009E000840BBAF09150A1F0FF0FBB1F661F771F59
:1009F000881FC2F70EC0BA0F621F731F841F48F40E
:100A0000879577956795B795F7959E3F08F0B3CF93
:100A10009395880F08F09927EE0F9795879508957D
:100A2000D4D008F481E008950CD00AC102D140F07E
:100A3000F9D030F021F45F3F19F0EBC0511134C10F
:100A4000EEC00FD198F39923C9F35523B1F3951B49
:100A5000550BBB27AA2762177307840738F09F5FDF
:100A60005F4F220F331F441FAA1FA9F333D00E2E4E
:100A70003AF0E0E830D091505040E695001CCAF7BB
:100A800029D0FE2F27D0660F771F881FBB1F261780
:100A900037074807AB07B0E809F0BB0B802DBF0153
:100AA000FF2793585F4F2AF09E3F510568F0B1C071
:100AB000FBC05F3FECF3983EDCF386957795679536
:100AC000B795F7959F5FC9F7880F911D9695879504
:100AD00097F90895E1E0660F771F881FBB1F621723
:100AE00073078407BA0720F0621B730B840BBA0BE1
:100AF000EE1F88F7E0950895BCD088F09F5790F0DE
:100B0000B92F9927B751A0F0D1F0660F771F881F32
:100B1000991F1AF0BA95C9F712C0B13081F0C3D04D
:100B2000B1E00895C0C0672F782F8827B85F39F0EB
:100B3000B93FCCF3869577956795B395D9F73EF491
:100B400090958095709561957F4F8F4F9F4F089539
:100B5000E89409C097FB3EF4909580957095619557
:100B60007F4F8F4F9F4F9923A9F0F92F96E9BB270D
:100B70009395F695879577956795B795F111F8CF89
:100B8000FAF4BB0F11F460FF1BC06F5F7F4F8F4FF4
:100B90009F4F16C0882311F096E911C0772321F0EA
:100BA0009EE8872F762F05C0662371F096E8862F82
:100BB00070E060E02AF09A95660F771F881FDAF7D9
:100BC000880F9695879597F90895990F0008550F06
:100BD000AA0BE0E8FEEF16161706E807F907C0F0C3
:100BE00012161306E407F50798F0621B730B840BCB
:100BF000950B39F40A2661F0232B242B252B21F4A5
:100C000008950A2609F4A140A6958FEF811D811D44
:100C1000089597F99F6780E870E060E008959FEF7E
:100C200080EC089500240A94161617061806090683
:100C3000089500240A941216130614060506089552
:100C4000092E0394000C11F4882352F0BB0F40F4DA
:100C5000BF2B11F460FF04C06F5F7F4F8F4F9F4F1A
:100C6000089557FD9058440F551F59F05F3F71F09C
:100C70004795880F97FB991F61F09F3F79F0879503
:100C80000895121613061406551FF2CF4695F1DF8C
:100C900008C0161617061806991FF1CF869571051C
:100CA000610508940895E894BB2766277727CB0150
:100CB00097F908958ADF08F48FEF08950BD0C0CF1D
:100CC000B1DF28F0B6DF18F0952309F0A2CFA7CF47
:100CD0001124EACFC6DFA0F3959FD1F3950F50E022
:100CE000551F629FF001729FBB27F00DB11D639FDE
:100CF000AA27F00DB11DAA1F649F6627B00DA11D84
:100D0000661F829F2227B00DA11D621F739FB00D29
:100D1000A11D621F839FA00D611D221F749F332799
:100D2000A00D611D231F849F600D211D822F762F32
:100D30006A2F11249F5750408AF0E1F088234AF02F
:100D4000EE0FFF1FBB1F661F771F881F915050407B
:100D5000A9F79E3F510570F05CCFA6CF5F3FECF343
:100D6000983EDCF3869577956795B795F795E79567
:100D70009F5FC1F7FE2B880F911D9695879597F978
:100D8000089523DF880B990B0895A1E21A2EAA1B60
:100D9000BB1BFD010DC0AA1FBB1FEE1FFF1FA2172B
:100DA000B307E407F50720F0A21BB30BE40BF50B28
:100DB000661F771F881F991F1A9469F760957095B1
:100DC000809590959B01AC01BD01CF010895EE0F78
:100DD000FF1F881F8BBF0790F691E02D199481E0CB
:0A0DE00090E0F89400C0F894FFCFF3
:100DEA00000000005D01C700F500A9012601040109
:100DFA00180153746172742074656D70206D6F6E82
:100E0A0069746F72696E6720302E31000D0A006EA8
:0C0E1A00616E00696E66006F7666000075
:00000001FF
